:100000000C945D000C9485000C9485000C94850084
:100010000C9485000C9485000C9485000C9485004C
:100020000C9485000C9485000C9485000C9485003C
:100030000C9485000C9485000C9485000C9485002C
:100040000C948D030C9485000C9485000C94850011
:100050000C9485000C9485000C9485000C9485000C
:100060000C9485000C94850000000008000201003B
:100070000003040700000000000000000000000072
:10008000250028002B0000000000240027002A0083
:10009000040404040404040402020202020203032E
:1000A0000303030301020408102040800102040836
:1000B00010200102040810202D0511241FBECFEFCF
:1000C000D8E0DEBFCDBF11E0A0E0B1E0E6EAFAE0A3
:1000D00002C005900D92AC30B107D9F722E0ACE038
:1000E000B1E001C01D92AF32B207E1F710E0CDE5FB
:1000F000D0E004C02197FE010E944B05CC35D1070A
:10010000C9F70E94D7030C9451050C94000090E0AD
:10011000FC01EC55FF4F249180579F4FFC018491C7
:10012000882399F090E0880F991FFC01EA57FF4F50
:10013000A591B491FC01E458FF4F859194918FB73C
:10014000F894EC91E22BEC938FBF0895AF92BF929D
:10015000CF92DF92EF92FF920F931F93CF93DF9393
:100160006C017B018B01040F151FEB015E01AE18C2
:10017000BF08C017D10759F06991D601ED91FC91E4
:100180000190F081E02DC6010995892B79F7C50111
:10019000DF91CF911F910F91FF90EF90DF90CF9063
:1001A000BF90AF90089590E0FC01E859FF4F249173
:1001B000FC01EC55FF4F3491FC01E057FF4FE491F7
:1001C000EE23C9F0222339F0233001F1A8F42130C5
:1001D00019F1223029F1F0E0EE0FFF1FE458FF4F34
:1001E000A591B4918FB7F894EC91611126C0309528
:1001F0003E233C938FBF08952730A9F02830C9F0E3
:10020000243049F7809180008F7D03C08091800069
:100210008F7780938000DFCF84B58F7784BDDBCF6D
:1002200084B58F7DFBCF8091B0008F778093B00035
:10023000D2CF8091B0008F7DF9CF3E2BDACF3FB780
:10024000F8948091110190911201A0911301B09145
:10025000140126B5A89B05C02F3F19F00196A11DDA
:10026000B11D3FBFBA2FA92F982F8827BC01CD0100
:10027000620F711D811D911D42E0660F771F881F5F
:10028000991F4A95D1F70895089590E080E0089568
:100290008F929F92AF92BF92CF92DF92EF92FF9296
:1002A000CF93DF93FC0130E020E0D9011596812C3B
:1002B000912C540183942A173B07D1F08781750153
:1002C0006401022E04C0CC0CDD1CEE1CFF1C0A9441
:1002D000D2F7482F40954C2148274783EB014881AE
:1002E000942F90959C21942798832F5F3F4FE3CFC5
:1002F000DF91CF91FF90EF90DF90CF90BF90AF90C4
:100300009F908F900895CF93DF93EC0160E08E81F2
:100310000E94D30061E08E810E94D30060E08E8154
:100320000E94D3008BE891E00197F1F7DF91CF9124
:100330000895CF92DF92EF92FF920F931F93CF9386
:10034000DF936C017C0187E0E80EF11CD0E0C0E097
:10035000062F10E0B8010C2E02C0759567950A941F
:10036000E2F76170F70181917F010E94D30021962D
:10037000C430D10579F7C601DF91CF911F910F915C
:10038000FF90EF90DF90CF900C948301CF92DF929B
:10039000EF92FF920F931F93CF93DF93EC01F62E12
:1003A000642F8C810E94D3008D818F3F19F060E013
:1003B0000E94D3000F2D10E08F8584FF25C06E01B1
:1003C00087E0C80ED11CF12CE12CB8010E2C02C024
:1003D000759567950A94E2F76170F60181916F0156
:1003E0000E94D300FFEFEF1AFF0A88E0E816F1043D
:1003F00061F7CE01DF91CF911F910F91FF90EF90A8
:10040000DF90CF900C948301B80184E075956795D7
:100410008A95E1F7CE010E9499016F2DCE01DF91FF
:10042000CF911F910F91FF90EF90DF90CF900C94A0
:10043000990140E0682F87E192E00C94C601CF93C8
:10044000DF93823029F490912602986090932602DF
:1004500080932A0210922B0280E480932C0280E188
:1004600080932D0280E580932E0280911B020E94D2
:10047000870080911C028F3F11F00E9487008091BD
:100480001D020E948700C7E1D2E09E012751324041
:100490008091260284FD0AC084E090E0219628170E
:1004A00039073CF48E810E948700EFCF88E090E00E
:1004B000F5CF8BE39DE00197F1F760E080911B029F
:1004C0000E94D30060E080911D020E94D3008091C1
:1004D0001C028F3F19F060E00E94D3008091260239
:1004E00084FD39C063E087E192E00E949901CBE48A
:1004F000D6E4CE010197F1F763E087E192E00E9434
:1005000099012197F1F763E087E192E00E94990158
:1005100083E592E00197F1F762E087E192E00E94C3
:1005200099018091260280620E94190284E08093E2
:1005300027028CE00E94190281E00E9419028BE3DD
:100540009FE10197F1F782E08093280286E0DF9136
:10055000CF910C94190280620E9419028BE496E4F8
:100560000197F1F78091260280620E94190283E5CB
:1005700092E00197F1F78091260280620E941902B1
:10058000D0CF90912A02691710F06FEF690FE62F14
:10059000F0E0E95EFD4F9489890F80680C941902A0
:1005A0008F929F92AF92BF92CF92DF92EF92FF9283
:1005B0000E941F014B015C0188E2C82ED12CE12C66
:1005C000F12C0E941F01681979098A099B09683E6C
:1005D000734081059105A8F321E0C21AD108E10812
:1005E000F10888EE880E83E0981EA11CB11CC1148E
:1005F000D104E104F10429F781E00E9419028BE3A0
:100600009FE10197F1F76DEC71E08DE491E00E94BC
:10061000480165EC71E085E491E00E9448016DEBD2
:1006200071E08DE391E00E94480165EB71E085E3A4
:1006300091E00E9448016DEA71E08DE291E00E9434
:10064000480165EA71E085E291E00E9448016DE9A8
:1006500071E08DE191E00E94480165E971E085E17A
:1006600091E00E9448016DE072E08DE891E00E9407
:10067000480165E072E085E891E00E9448016DEF75
:1006800071E08DE791E00E94480165EF71E085E738
:1006900091E00E9448016DEE71E08DE691E00E94CC
:1006A000480165EE71E085E691E00E9448016DED3C
:1006B00071E08DE591E00E94480165ED71E085E50E
:1006C00091E0FF90EF90DF90CF90BF90AF909F9020
:1006D0008F900C94480141E00E94C60181E090E0B7
:1006E00008950F931F93CF93DF938B0128E0829F90
:1006F000C001112480640E941902E801085F1F4FA5
:10070000699187E192E00E946B03C017D107C1F79E
:10071000DF91CF911F910F9108951F920F920FB605
:100720000F9211242F933F938F939F93AF93BF9377
:1007300080910D0190910E01A0910F01B0911001D7
:1007400030910C0123E0230F2D3758F50196A11DA0
:10075000B11D20930C0180930D0190930E01A09385
:100760000F01B09310018091110190911201A0919D
:100770001301B09114010196A11DB11D80931101C7
:1007800090931201A0931301B0931401BF91AF9104
:100790009F918F913F912F910F900FBE0F901F90BF
:1007A000189526E8230F0296A11DB11DD2CF78948B
:1007B00084B5826084BD84B5816084BD85B5826066
:1007C00085BD85B5816085BD80916E008160809317
:1007D0006E00109281008091810082608093810080
:1007E0008091810081608093810080918000816090
:1007F000809380008091B10084608093B1008091EB
:10080000B00081608093B00080917A008460809312
:100810007A0080917A00826080937A0080917A00D9
:10082000816080937A0080917A00806880937A005A
:100830001092C10082E00E941F02C0E0D0E004E0FC
:1008400010E083E0E82EF12C92E0C92ED12CAA24EE
:10085000A394B12C8091150290911602009779F51E
:10086000B0921602A09215026DE471E080E00E9441
:10087000710365E471E081E00E9471036DE371E052
:1008800082E00E94710365E371E083E00E947103DE
:100890006DE271E084E00E94710365E271E085E041
:1008A0000E9471036DE171E086E00E94710365E1D1
:1008B00071E087E00E94710360E080E032C0813027
:1008C000910509F060C0D0921602C09215026DE841
:1008D00071E080E00E94710365E871E081E00E94B0
:1008E00071036DE771E082E00E94710365E771E0DA
:1008F00083E00E9471036DE671E084E00E94710361
:1009000065E671E085E00E9471036DE571E086E0C7
:100910000E94710365E571E087E00E94710360E069
:1009200088E00E94C10260E087E192E00E946B03D0
:1009300061E087E192E00E946B0362E087E192E070
:100940000E946B0363E087E192E00E946B0364E026
:1009500087E192E00E946B0365E087E192E00E94EC
:100960006B0366E087E192E00E946B0367E087E13A
:1009700092E00E946B030E94D002209709F46ACF94
:100980000E94000067CF8230910571F5F092160247
:10099000E09215026DEC71E080E00E94710365EC5D
:1009A00071E081E00E9471036DEB71E082E00E94D2
:1009B000710365EB71E083E00E9471036DEA71E001
:1009C00084E00E94710365EA71E085E00E94710392
:1009D0006DE971E086E00E94710365E971E087E0EE
:1009E0000E94710361E069CF8330910571F5109326
:1009F0001602009315026DE072E080E00E94710320
:100A000065E072E081E00E9471036DEF71E082E0C9
:100A10000E94710365EF71E083E00E9471036DEE47
:100A200071E084E00E94710365EE71E085E00E9450
:100A300071036DED71E086E00E94710365ED71E078
:100A400087E00E94710361E06BCF049709F095CFB6
:100A5000109216021092150290CFE7E1F2E0138295
:100A6000128284E091E0918380838CE084838FEF15
:100A700085838BE0868385E0878384E0808783E0BD
:100A8000818782E0828713861486158616861786EC
:100A900081E00C941F02EE0FFF1F0590F491E02DF2
:060AA0000994F894FFCF59
:0C0AA600000000006B03A60045014401A5
:00000001FF
